:020000040000FA
:10000000F9EF03F0D9CFE5FFE1CFD9FF00C0E5FF5D
:1000100001C0E5FF02C0E5FF03C0E5FF020EDBCF34
:1000200000F0030EDBCF01F0030EE56EE80EE56E87
:100030000150E56E0050E56EEDEC01F0026EF3CF7D
:1000400003F0040EE126000EE56E0A0EE56E035085
:10005000E56E0250E56E64EC02F0026EF3CF03F041
:10006000040EE126300E0226D8B0032A0350E56EB6
:100070000250E56E18EC05F0E652E652000EE56E11
:10008000640EE56E0150E56E0050E56EEDEC01F09A
:10009000026EF3CF03F0040EE126000EE56E0A0EA9
:1000A000E56E0350E56E0250E56E64EC02F0026E00
:1000B000F3CF03F0040EE126300E0226D8B0032A57
:1000C0000350E56E0250E56E18EC05F0E652E6527C
:1000D000000EE56E0A0EE56E0150E56E0050E56E0D
:1000E000EDEC01F0026EF3CF03F0040EE126000EFA
:1000F000E56E0A0EE56E0350E56E0250E56E64ECA7
:1001000002F0026EF3CF03F0040EE126300E022659
:10011000D8B0032A0350E56E0250E56E18EC05F0E6
:10012000E652E652000EE56E0A0EE56E0150E56EEF
:100130000050E56E64EC02F0006EF3CF01F0040EA7
:10014000E126300E0026D8B0012A0150E56E00509D
:10015000E56E18EC05F0E652E652E4CF03F0E4CF8A
:1001600002F0E4CF01F0E4CF00F0E4CFD9FF1200B9
:10017000D9CFE5FFE1CFD9FF00C0E5FF01C0E5FF22
:1001800002C0E5FF03C0E5FF020EDBCF00F0030E67
:10019000DBCF01F0040EDBCF02F0050EDBCF03F066
:1001A0008A8A0050010BE838F46E8A50EF0BF41085
:1001B0008A6E800E0214016E0144010B016E015023
:1001C000010BE838E840F46E8A50F70BF4108A6EA1
:1001D000400E0214016E0144E844030B016E01500D
:1001E000010BE844E844F46E8A50FB0BF4108A6E6D
:1001F000200E0214016E0138E840070B016E015019
:10020000010BE844F46E8A50FD0BF4108A6E100E58
:100210000214016E01380F0B016E0150010BF46ED8
:100220008A50FE0BF4108A6E080E39EC05F08A9A9B
:10023000020E39EC05F08A8A0050010BE838F46EA2
:100240008A50EF0BF4108A6E080E0214006E00380C
:10025000E8441F0B006E0050010BE838E840F46ED4
:100260008A50F70BF4108A6E040E0214006E0040E0
:10027000E8403F0B006E0050010BE844E844F46E88
:100280008A50FB0BF4108A6E020E0214006E0040BE
:100290007F0B006E0050010BE844F46E8A50FD0B9A
:1002A000F4108A6E0250010BF46E8A50FE0BF410AB
:1002B0008A6E080E39EC05F08A9A020E39EC05F0C8
:1002C000E4CF03F0E4CF02F0E4CF01F0E4CF00F09C
:1002D000E4CFD9FF1200A3EC04F058EC05F0006A5B
:1002E000016A88EC05F0026EF3CF03F00250010AB8
:1002F00002E10350F6E00050011006E1E8EC05F0E1
:10030000010E006E016AEDD7006A016AB3EC05F0D8
:10031000026EF3CF03F00250056E046A9EEC05F006
:10032000026EF3CF03F00250041203500512045082
:10033000E808026E030E0554036ED88003AED89011
:1003400002E3026A036A000EE56E0A0EE56E0350D0
:10035000E56E0250E56EEDEC01F0046EF3CF05F0B2
:10036000040EE1260550E56E0450E56E3AEC03F00C
:10037000E652E652000EE56E2E0EE56E18EC05F024
:10038000E652E652000EE56E0A0EE56E0350E56E8B
:100390000250E56E64EC02F0026EF3CF03F0040E3F
:1003A000E1260350E56E0250E56EE8EC04F0E652FB
:1003B000E652000EE56EDF0EE56E18EC05F0E65233
:1003C000E652000EE56E430EE56E18EC05F0E652BF
:1003D000E652C8EC05F085D71200D9CFE5FFE1CF92
:1003E000D9FF00C0E5FF01C0E5FF02C0E5FF03C083
:1003F000E5FF04C0E5FF05C0E5FF06C0E5FF07C057
:10040000E5FF020EDBCF00F0030EDBCF01F0040EA0
:10041000DBCF02F0050EDBCF03F0D88001AED89021
:10042000046A0436045007E0011C066E001C056EC9
:10043000054A062A04D000C005F001C006F0D880A5
:1004400003AED890006A0036005007E0031C076E28
:10045000021C016E014A072A04D002C001F003C049
:1004600007F00750E56E0150E56E0650E56E055049
:10047000E56E4EEC04F0016EF3CF02F0040EE126BF
:100480000050041A04500AE0021C036E011C006EA6
:10049000004A032A03C0F3FF005003D002C0F3FF59
:1004A0000150E4CF07F0E4CF06F0E4CF05F0E4CF4D
:1004B00004F0E4CF03F0E4CF02F0E4CF01F0E4CFA6
:1004C00000F0E4CFD9FF1200D9CFE5FFE1CFD9FF8B
:1004D00000C0E5FF01C0E5FF02C0E5FF03C0E5FF86
:1004E00004C0E5FF05C0E5FF06C0E5FF020EDBCF57
:1004F00000F0030EDBCF01F0040EDBCF02F0050E9F
:10050000DBCF03F0D88001AED890046A04360450E3
:1005100007E0011C066E001C056E054A062A04D081
:1005200000C005F001C006F0D88003AED89007E304
:10053000031C016E021C006E004A012A04D002C096
:1005400000F003C001F00150E56E0050E56E06506A
:10055000E56E0550E56E9CEC03F0006EF3CF01F004
:10056000040EE12604500AE0011C036E001C026E1A
:10057000024A032A03C0F3FF025003D001C0F3FF75
:100580000050E4CF06F0E4CF05F0E4CF04F0E4CF70
:1005900003F0E4CF02F0E4CF01F0E4CF00F0E4CFC9
:1005A000D9FF1200D9CFE5FFE1CFD9FF00C0E5FFA9
:1005B00001C0E5FF02C0E5FF03C0E5FF020EDBCF8F
:1005C00000F0030EDBCF01F0040EDBCF02F0050ECE
:1005D000DBCF03F08A8A0050010BE838F46E8A50B2
:1005E000EF0BF4108A6E080E0214006E0038E84417
:1005F0001F0B006E0050010BE838E840F46E8A5083
:10060000F70BF4108A6E040E0214006E0040E840EE
:100610003F0B006E0050010BE844E844F46E8A5032
:10062000FB0BF4108A6E020E0214006E00407F0B6A
:10063000006E0050010BE844F46E8A50FD0BF4107C
:100640008A6E0250010BF46E8A50FE0BF4108A6E13
:10065000080E39EC05F08A9A020E39EC05F0E4CF69
:1006600003F0E4CF02F0E4CF01F0E4CF00F0E4CFF8
:10067000D9FF1200D9CFE5FFE1CFD9FF00C0E5FFD8
:1006800001C0E5FF02C0E5FF03C0E5FF020EDBCFBE
:1006900000F0030EDBCF01F0000EE56E0A0EE56EF2
:1006A0000150E56E0050E56EEDEC01F0026EF3CF07
:1006B00003F0040EE126000EE56E0A0EE56E03500F
:1006C000E56E0250E56E64EC02F0026EF3CF03F0CB
:1006D000040EE126300E0226D8B0032A0350E56E40
:1006E0000250E56E18EC05F0E652E652000EE56E9B
:1006F0000A0EE56E0150E56E0050E56E64EC02F006
:10070000006EF3CF01F0040EE126300E0026D8B0C3
:10071000012A0150E56E0050E56E18EC05F0E65236
:10072000E652E4CF03F0E4CF02F0E4CF01F0E4CFEF
:1007300000F0E4CFD9FF1200D9CFE5FFE1CFD9FF18
:1007400000C0E5FF01C0E5FF02C0E5FF03C0E5FF13
:1007500004C0E5FF05C0E5FF06C0E5FF020EDBCFE4
:1007600000F0030EDBCF01F0040EDBCF02F0050E2C
:10077000DBCF03F0046A056A0350800BE844066E81
:10078000065011E10250022603360350015C02E1DB
:100790000250005C04E2D8900332023204D0052AF1
:1007A00005C004F0E9D70350015C02E10250005C8F
:1007B00004E30250005E0350015AD8900332023223
:1007C00004C005F004060550EEE101C0F3FF00503F
:1007D000E4CF06F0E4CF05F0E4CF04F0E4CF03F07B
:1007E000E4CF02F0E4CF01F0E4CF00F0E4CFD9FF92
:1007F000120011EEFFF021EEFFF0F86AA68EA69C23
:1008000007EEFFF00068ED6A0050FDE1E00EF66EC5
:100810000B0EF76E000EF86E0900F5CF05F009001B
:10082000F5CF06F034D00900F5CF00F00900F5CF80
:1008300001F00900F5CF02F009000900F5CFE9FF4A
:100840000900F5CFEAFF090009000900F5CF03F020
:100850000900F5CF04F009000900F6CF07F0F7CF43
:1008600008F0F8CF09F000C0F6FF01C0F7FF02C0A2
:10087000F8FF03D00900F5CFEEFF0306FBE2040604
:10088000F9E207C0F6FF08C0F7FF09C0F8FF050648
:10089000CAE20606C8E26BEC01F0FFD7D9CFE5FF4C
:1008A000E1CFD9FF00C0E5FF01C0E5FF02C0E5FFD1
:1008B00003C0E5FF04C0E5FF05C0E5FF06C0E5FF96
:1008C00007C0E5FF020EDBCF00F0030EDBCF01F027
:1008D000040EDBCF02F0050EDBCF03F0046A056ADD
:1008E000100E066E0150800BE844076E0050002683
:1008F00001360450042605360750D8A4048003505E
:10090000055C02E10250045C05E30250045E035002
:10091000055A008006060650E5E101C0F3FF0050CD
:10092000E4CF07F0E4CF06F0E4CF05F0E4CF04F025
:10093000E4CF03F0E4CF02F0E4CF01F0E4CF00F025
:10094000E4CFD9FF1200D9CFE5FFE1CFD9FF9398CB
:10095000939A9390939293949396000EE56E020E61
:10096000E56E000EE56E000EE56ED2EC02F0040EB0
:10097000E126DDEC05F0000EE56E230EE56E000EBF
:10098000E56E000EE56EB8EC00F0040EE126DDEC3D
:1009900005F0000EE56E0C0EE56E000EE56E000E25
:1009A000E56EB8EC00F0040EE126DDEC05F0000E7B
:1009B000E56E060EE56E000EE56E000EE56EB8EC17
:1009C00000F0040EE126DDEC05F0E4CFD9FF1200C3
:1009D000D9CFE5FFE1CFD9FF00C0E5FF01C0E5FFBA
:1009E000020EDBCF00F0030EDBCF01F0000EE56E50
:1009F0000A0EE56E0150E56E0050E56E64EC02F003
:100A0000006EF3CF01F0040EE126300E0026D8B0C0
:100A1000012A0150E56E0050E56E18EC05F0E65233
:100A2000E652E4CF01F0E4CF00F0E4CFD9FF1200AA
:100A3000D9CFE5FFE1CFD9FF00C0E5FF01C0E5FF59
:100A4000020EDBCF00F0030EDBCF01F00150E56EAC
:100A50000050E56E000EE56E010EE56EB8EC00F09C
:100A6000040EE126E4CF01F0E4CF00F0E4CFD9FF9B
:100A70001200E806E56E630E4CEC05F0E4500BE066
:100A800000D0E56E630E4CEC05F000D000D0000005
:100A9000E450E82EF6D71200E8060000E85007E020
:100AA00000D000D000D000D00000E82EFAD712000D
:100AB000D9CFE5FFE1CFD9FFC250C30BC26EC08EC4
:100AC000C050F80B0709C06EC050C70BC06EC150B4
:100AD000F00B0C09C16EC18AC188C280E4CFD9FF76
:100AE0001200D9CFE5FFE1CFD9FF938093829384A1
:100AF00093868A8A020E39EC05F08A9A020E39EC46
:100B000005F09390939293949396E4CFD9FF1200BB
:100B1000D9CFE5FFE1CFD9FF00C0E5FF01C0E5FF78
:100B2000006AC2B2002A016A01C0F3FF0050E4CF9C
:100B300001F0E4CF00F0E4CFD9FF1200D9CFE5FFF8
:100B4000E1CFD9FF00C0E5FF01C0E5FFC3CF00F052
:100B5000016A01C0F3FF0050E4CF01F0E4CF00F0E0
:100B6000E4CFD9FF1200D9CFE5FFE1CFD9FF00C014
:100B7000E5FF01C0E5FFC4CF00F0016A01C0F3FF4B
:100B80000050E4CF01F0E4CF00F0E4CFD9FF120031
:100B9000D9CFE5FFE1CFD9FF000EE56E020EE56E7D
:100BA000000EE56E000EE56EB8EC00F0040EE126D6
:100BB000DDEC05F0E4CFD9FF1200D9CFE5FFE1CF9E
:100BC000D9FF71EC05F071EC05F0E4CFD9FF12000C
:100BD000D9CFE5FFE1CFD9FFC282E4CFD9FF120020
:100BE0000100EE0B000060000000010000000000AA
:020000040030CA
:010006008574
:00000001FF
