:020000040000FA
:0400000048EF01F0D4
:08000800EDEF01F0D9CFE5FF97
:10001000E1CFD9FF00C0E5FF01C0E5FF0001745149
:100020000001751101E162D000017A3F02D00001A8
:100030007B2B00017651010A03E10001775101E0B9
:1000400014D0000EE56E0A0EE56E00017B51E56EE0
:1000500000017A51E56E7DEC00F0006EF3CF01F007
:10006000040EE126005001100DE000017651000160
:1000700077112AE100017A51280A03E100017B513E
:1000800001E022D000017851010F006E000E000146
:100090007921016E000EE56E0A0EE56E0150E56EE7
:1000A0000050E56E7DEC00F00001786FF3CF79F041
:1000B000040EE12600017951E56E00017851E56EEC
:1000C00037EC02F0E652E652000EE56E280EE56EC1
:1000D00000017B51E56E00017A51E56E7DEC00F088
:1000E00000017A6FF3CF7BF0040EE126E4CF01F03C
:1000F000E4CF00F0E4CFD9FF1200D9CFE5FFE1CF84
:10010000D9FF00C0E5FF01C0E5FF02C0E5FF03C065
:10011000E5FF04C0E5FF05C0E5FF06C0E5FF020EF0
:10012000DBCF00F0030EDBCF01F0040EDBCF02F0DB
:10013000050EDBCF03F0D88001AED890046A0436F8
:10014000045007E0011C066E001C056E054A062AD5
:1001500004D000C005F001C006F0D88003AED890EE
:1001600007E3031C016E021C006E004A012A04D042
:1001700002C000F003C001F00150E56E0050E56ED2
:100180000650E56E0550E56EEBEC00F0006EF3CF27
:1001900001F0040EE12604500AE0011C036E001C6D
:1001A000026E024A032A03C0F3FF025003D001C0CB
:1001B000F3FF0050E4CF06F0E4CF05F0E4CF04F005
:1001C000E4CF03F0E4CF02F0E4CF01F0E4CF00F09D
:1001D000E4CFD9FF1200D9CFE5FFE1CFD9FF00C0AE
:1001E000E5FF01C0E5FF02C0E5FF03C0E5FF04C075
:1001F000E5FF05C0E5FF06C0E5FF020EDBCF00F01E
:10020000030EDBCF01F0040EDBCF02F0050EDBCFD7
:1002100003F0046A056A0350800BE844066E06503A
:1002200011E10250022603360350015C02E1025044
:10023000005C04E2D8900332023204D0052A05C0E3
:1002400004F0E9D70350015C02E10250005C04E3D2
:100250000250005E0350015AD8900332023204C0AB
:1002600005F004060550EEE101C0F3FF0050E4CFB5
:1002700006F0E4CF05F0E4CF04F0E4CF03F0E4CFE0
:1002800002F0E4CF01F0E4CF00F0E4CFD9FF120098
:1002900011EEFFF021EEFFF0F86AA68EA69C07EEA5
:1002A000FFF00068ED6A0050FDE1CE0EF66E050E1F
:1002B000F76E000EF86E0900F5CF05F00900F5CFD6
:1002C00006F034D00900F5CF00F00900F5CF01F0B9
:1002D0000900F5CF02F009000900F5CFE9FF090098
:1002E000F5CFEAFF090009000900F5CF03F0090086
:1002F000F5CF04F009000900F6CF07F0F7CF08F0BA
:10030000F8CF09F000C0F6FF01C0F7FF02C0F8FF08
:1003100003D00900F5CFEEFF0306FBE20406F9E285
:1003200007C0F6FF08C0F7FF09C0F8FF0506CAE2DC
:100330000606C8E2DFEC02F0FFD7D9CFE5FFE1CF38
:10034000D9FF00C0E5FF01C0E5FF02C0E5FF03C023
:10035000E5FF020EDBCF00F0030EDBCF01F0040E51
:10036000DBCF02F0050EDBCF03F0005000017D6F04
:1003700001507E6F025000017F6F0350806F0001BB
:100380007D5100017F03F4CF01F0F3CF00F0005066
:100390000001816F0150826F00017D5100018003D7
:1003A000F3CF00F000017E5100017F03F3CF01F095
:1003B000015000260001825100260050826F82C049
:1003C000F3FF8151E4CF03F0E4CF02F0E4CF01F07A
:1003D000E4CF00F0E4CFD9FF1200D8CFE5FFE0CFA3
:1003E000E5FFE56EF3CFE5FFF4CFE5FFE9CFE5FFED
:1003F000EACFE5FFFACFE5FFFBCFE5FFD9CFE5FF79
:10040000E1CFD9FF00C0E5FF006AF2B4002A005036
:10041000010A05E106EC00F03C0ED66EF294006A8B
:10042000F2B2002A0050010A03E18CEC02F0F292D1
:10043000006AF0B0002A0050010A03E16CEC02F0FF
:10044000F090E4CF00F0E4CFD9FFE4CFFBFFE4CF9E
:10045000FAFFE4CFEAFFE4CFE9FFE4CFF4FFE4CF13
:10046000F3FFE450E4CFE0FFE4CFD8FF1000D9CF92
:10047000E5FFE1CFD9FF00C0E5FF01C0E5FF020EB7
:10048000DBCF00F0030EDBCF01F00150800F800FB7
:1004900002E10B0E005C19E20150E56E0050E56EC2
:1004A000000EE56E020EE56E9DEC01F0006EF3CFDE
:1004B00001F0040EE126600E0026000E012200C0AD
:1004C000E9FF01C0EAFFEFCF8CFFE4CF01F0E4CFFA
:1004D00000F0E4CFD9FF1200D9CFE5FFE1CFD9FF7B
:1004E00000017451000175110FE100017951E56EB1
:1004F00000017851E56E37EC02F0E652E652010E4B
:100500000001746F0001756B010E0001766F000130
:10051000776BE4CFD9FF1200D9CFE5FFE1CFD9FF48
:1005200000017451000175110FE100017951E56E70
:1005300000017851E56E37EC02F0E652E652010E0A
:100540000001746F0001756B0001766B0001776B21
:10055000E4CFD9FF1200D9CFE5FFE1CFD9FF470E95
:10056000D56EF294F194F28A3C0ED66EF19EF29220
:10057000F288F19C9F809380F090F086F19A9382AC
:10058000D09EF28CF28ED58EE4CFD9FF12003F00C0
:1005900006005B004F0066006D007D0007007F00D5
:1005A0006F0000000000000000000000D9CFE5FF50
:1005B000E1CFD9FF956A8C6AE4CFD9FF12000F0E04
:1005C000C112D6EC02F0ABEC02F0FFD71200010032
:0C05D0008E050000600000001D0000000F
:020000040030CA
:010006008574
:00000001FF
