:020000040000FA
:1000000002EF00F011EEFFF021EEFFF0F86AA68E8D
:10001000A69C07EEFFF00068ED6A0050FDE1740E4B
:10002000F66E010EF76E000EF86E0900F5CF05F0C2
:100030000900F5CF06F034D00900F5CF00F0090033
:10004000F5CF01F00900F5CF02F009000900F5CF66
:10005000E9FF0900F5CFEAFF090009000900F5CF23
:1000600003F00900F5CF04F009000900F6CF07F00E
:10007000F7CF08F0F8CF09F000C0F6FF01C0F7FF96
:1000800002C0F8FF03D00900F5CFEEFF0306FBE244
:100090000406F9E207C0F6FF08C0F7FF09C0F8FF41
:1000A0000506CAE20606C8E295EC00F0FFD7D9CFF4
:1000B000E5FFE1CFD9FF00C0E5FF01C0E5FF02C0C9
:1000C000E5FF03C0E5FF020EDBCF00F0030EDBCF40
:1000D00001F0040EDBCF02F0050EDBCF03F0C26AA5
:1000E0000F0E00160044E844FC0BC26E3F0E0216D1
:1000F000300E03140210C16E800E0314006E3F0E0A
:10010000011601500010C06E03AC03D09E9C9D8C64
:10011000F28CC280E4CF03F0E4CF02F0E4CF01F030
:10012000E4CF00F0E4CFD9FF1200000EE56E0F0E11
:10013000E56EC00EE56E000EE56E57EC00F0040EA5
:10014000E126C5EC00F0006E0050FBE1C1EC00F0D0
:10015000C9EC00F0F6D71200D9CFE5FFE1CFD9FF07
:10016000E4CFD9FF1200D9CFE5FFE1CFD9FFE4CF2B
:10017000D9FF12000100960100006000000001009C
:100180000000C4CFF3FFC3501200000EC2B2010F33
:080190001200C28212000000FF
:020000040030CA
:010006008574
:00000001FF
